:1009C800020B024B029302BA0310037003DC0417F4
:1009D800049705270575062006E007B8000201EE12
:1009E800FC8FFCEFFD45FD6CFDB5FDF5FE2EFE48C8
:1009F800FE78FEA3FEB7FEDBFEFBFF170F0F0F0806
:100A0800090A05080A0A0F0908090C0C0C0C0F083A
:100A18000708080808080F070807080706050F054C
:100A28000506060606060F050305030509080F0552
:100A38000A0A0A0B0C0808090A040404080808082A
:100A4800080808080808080808080808080808081E
:100A5800080808080808080808080808080808080E
:100A68000808080808080808080804080808080802
:060A780008080810202010
:0A0B4A00C180C101010DFF010E0082
:100B0A00D2AF758901850D8C850E8AD2A9D28C7FC8
:0D0B1A00371208FB7F407E9C120B2780F2F3
:100B2700E4FDFCC3ED9FEC9E50070DBD00010C805A
:010B3700F2CB
:010B3800229A
:0208FB008F0864
:1008FD00E4F50BF50CFDFCFFFEF509E509C3943D90
:10090D0040030209C73001FDC201E50C450B707EA5
:10091D00E509900A049314F50A25E024E8F582E42C
:10092D003409F583E493FC740193FDECF50D8D0E04
:10093D00E509900A4193FF7E00AD087C001208CEB8
:10094D00C004A905AA06AB07E50A25E024C8F5826F
:10095D00E43409F583E493FE740193FF7C007DF08C
:10096D001208CED00012083CAC06AD07ED7802CED1
:10097D00C313CE13D8F9FFC3ED9FFFEC9EFED2003B
:10098D00050CE50C6003020908050B020908E50CCE
:10099D00B5050FE50BB5040AE4F50BF50C050902D9
:1009AD000908050CE50C7002050B6F7003E50B6E65
:0A09BD006003020908C200020908E5
:0109C700220D
:03000B00020B39AC
:100B3900850D8C850E8AD201300003B28032D280B5
:010B49003279
:03000000020A7E73
:0C0A7E00787FE4F6D8FD758120020AC5DF
:1008000075F008758200EF2FFFEE33FECD33CDCCAF
:1008100033CCC58233C5829BED9AEC99E582984032
:100820000CF582EE9BFEED9AFDEC99FC0FD5F0D60F
:10083000E4CEFBE4CDFAE4CCF9A88222B800C1B939
:100840000059BA002DEC8BF084CFCECDFCE5F0CB77
:10085000F97818EF2FFFEE33FEED33FDEC33FCEBB0
:1008600033FB10D703994004EB99FB0FD8E5E4F96B
:10087000FA227818EF2FFFEE33FEED33FDEC33FC58
:10088000C933C910D7059BE99A4007EC9BFCE99A4C
:10089000F90FD8E0E4C9FAE4CCFB2275F010EF2F91
:1008A000FFEE33FEED33FDCC33CCC833C810D70791
:1008B0009BEC9AE899400AED9BFDEC9AFCE899F8CC
:0E08C0000FD5F0DAE4CDFBE4CCFAE4C8F9225F
:1008CE00EC8EF0A4CCC5F0CCCDF8EFA4CEC5F02DB7
:1008DE00FDE43CFCE8A42EC8C5F03DFDE43CFCEF75
:0D08EE00A4FFE5F028FEE43DFDE43CFC2203
:100A8A00020B0AE493A3F8E493A34003F68001F26D
:100A9A0008DFF48029E493A3F85407240CC8C3336D
:100AAA00C4540F4420C8834004F456800146F6DF3C
:100ABA00E4800B0102040810204080900B4AE47E77
:100ACA00019360BCA3FF543F30E509541FFEE49331
:100ADA00A360010ECF54C025E060A840B8E493A3F8
:100AEA00FAE493A3F8E493A3C8C582C8CAC583CA23
:100AFA00F0A3C8C582C8CAC583CADFE9DEE780BEDB
:010B540000A0
:00000001FF
